:100000000C946F000C9497000C9497000C9497003C
:100010000C9497000C9497000C9497000C94970004
:100020000C9497000C9497000C9497000C949700F4
:100030000C9497000C9497000C9497000C949700E4
:100040000C944E080C9497000C94BE080C949808DD
:100050000C9497000C9497000C9497000C949700C4
:100060000C94F0080C949700084AD73B3BCE016EE5
:1000700084BCBFFDC12F3D6C74319ABD56833DDAFF
:100080003D00C77F11BED9E4BB4C3E916BAAAABE0E
:10009000000000803F0000000000250028002B0029
:1000A000040404040404040402020202020203031E
:1000B0000303030301020408102040800102040826
:1000C00010200102040810200000000800020100B6
:1000D0000003040700000000000000000F0A1124C4
:1000E0001FBECFEFD8E0DEBFCDBF11E0A0E0B1E092
:1000F000E4E4FEE102C005900D92A634B107D9F701
:1001000023E0A6E4B1E001C01D92AC30B207E1F7F4
:1001100010E0CFE6D0E004C02197FE010E94DC0B86
:10012000CE36D107C9F70E94750A0C94200F0C94A3
:10013000000090E0FC01E853FF4F2491FC01EC54D7
:10014000FF4F3491FC01E056FF4FE491EE23C9F0DC
:10015000222339F0233001F1A8F4213019F12230A3
:1001600029F1F0E0EE0FFF1FEA56FF4FA591B49181
:100170008FB7F894EC91611126C030953E233C93E3
:100180008FBF08952730A9F02830C9F0243049F7EF
:10019000809180008F7D03C0809180008F77809355
:1001A0008000DFCF84B58F7784BDDBCF84B58F7DB2
:1001B000FBCF8091B0008F778093B000D2CF809139
:1001C000B0008F7DF9CF3E2BDACF3FB7F894809106
:1001D0008F0190919001A0919101B091920126B56B
:1001E000A89B05C02F3F19F00196A11DB11D3FBF6F
:1001F000BA2FA92F982F8827BC01CD01620F711D3E
:10020000811D911D42E0660F771F881F991F4A9537
:10021000D1F7089508950895AF92BF92CF92DF92DB
:10022000EF92FF920F931F93CF93DF936C017B01AB
:100230008B01040F151FEB015E01AE18BF08C0173C
:10024000D10759F06991D601ED91FC910190F081AF
:10025000E02DC6010995892B79F7C501DF91CF9172
:100260001F910F91FF90EF90DF90CF90BF90AF90D4
:100270000895FC01538D448D252F30E0842F90E0AC
:10028000821B930B541710F0CF9608950197089591
:10029000FC01918D828D981761F0A28DAE0FBF2F5A
:1002A000B11D5D968C91928D9F5F9F73928F90E0B0
:1002B00008958FEF9FEF0895FC01918D828D98171F
:1002C00031F0828DE80FF11D858D90E008958FEF5C
:1002D0009FEF0895FC01918D228D892F90E0805C25
:1002E0009F4F821B91098F739927089589E092E0AF
:1002F0000E946A0121E0892B09F420E0822F0895F1
:1003000080E090E0892B29F00E94760181110C9405
:1003100000000895FC01A48DA80FB92FB11DA35AA8
:10032000BF4F2C91848D90E001968F739927848F15
:10033000A689B7892C93A089B1898C918370806438
:100340008C93938D848D981306C00288F389E02DD9
:1003500080818F7D80830895EF92FF920F931F938A
:10036000CF93DF93EC0181E0888F9B8D8C8D981368
:100370001AC0E889F989808185FF15C09FB7F89474
:10038000EE89FF896083E889F989808183708064C0
:1003900080839FBF81E090E0DF91CF911F910F910B
:1003A000FF90EF900895F62E0B8D10E00F5F1F4F1A
:1003B0000F731127E02E8C8D8E110CC00FB607FC29
:1003C000FACFE889F989808185FFF5CFCE010E94B7
:1003D0008A01F1CFEB8DEC0FFD2FF11DE35AFF4F9A
:1003E000F0829FB7F8940B8FEA89FB898081806245
:1003F000CFCFCF93DF93EC01888D8823B9F0AA8902
:10040000BB89E889F9898C9185FD03C0808186FDCF
:100410000DC00FB607FCF7CF8C9185FFF2CF80811E
:1004200085FFEDCFCE010E948A01E9CFDF91CF9108
:10043000089520916701260F3327331F213231059C
:10044000ECF42091DF01FC0190E080E0243069F0C1
:1004500082E00895A09167012191AC01495B5E4F54
:10046000A40FB52FB11D2C930196861798F3809198
:100470006701680F6093670180E0089581E0089547
:100480001092DF0181E08093DE011092B90161E0FA
:1004900082E10E94990061E083E10E949900E9EB0A
:1004A000F0E080818E7F808380818D7F808388E4EF
:1004B0008093B80085E48093BC000895CF93DF93C8
:1004C00091E0909346018823B9F0C091B800D09193
:1004D000BA008091BC008A7B8093BC0060E082E11E
:1004E0000E94990060E083E10E9499000E9440020E
:1004F000D093BA00C093B800DF91CF9108958F9246
:100500009F92AF92BF92CF92DF92EF92FF920F93A2
:100510001F93CF93DF93D0910802D13208F0D7C058
:10052000182FC09107020E94E5006B017C018091A9
:10053000DF0181116BC082E08093DF011093DE0147
:100540008FEF8093DD011092DC01D093DB01A7EEE9
:10055000B1E0EBEBF1E080E0D81391C01092BA016A
:100560008091BA01CC0FC82BC093BA018091B90118
:10057000813009F088C01092B9010E94E5006B013A
:100580007C018091BA018093BB008091E101909140
:10059000E201A091E301B091E401892B8A2B8B2B1E
:1005A000A1F00E94E5000091E1011091E20120918B
:1005B000E3013091E4016C197D098E099F0906174A
:1005C00017072807390708F442C08091BC0083FD53
:1005D000D8CF85EC8093BC000E94E5006B017C01C4
:1005E0008091DF01823009F450C08091DD018F3F9E
:1005F00009F46FC08091DD01803209F46CC08091F4
:10060000DD01803309F469C084E026C08091E101F6
:100610009091E201A091E301B091E401892B8A2B32
:100620008B2B09F484CF0E94E5008090E10190902B
:10063000E201A090E301B090E4016C197D098E09FC
:100640009F0986169706A806B90608F070CF809114
:10065000E0010E945E0285E01092E601109208021D
:100660001092E501DF91CF911F910F91FF90EF90D4
:10067000DF90CF90BF90AF909F908F9008959D9105
:1006800091938F5F69CF85EEA5CF8091E101909125
:10069000E201A091E301B091E401892B8A2B8B2B1D
:1006A00009F49ECF0E94E5000091E1011091E20162
:1006B0002091E3013091E4016C197D098E099F09B5
:1006C000061717072807390708F08ACFC0CF81E03F
:1006D000C3CF80E0C1CF82E0BFCF83E0BDCF1F9307
:1006E000CF93DF93162FC2EBD2E0A881B98191E0BE
:1006F0009093E50198E6909307021092E60110921C
:100700000802ED91FC9111970190F081E02D682F86
:10071000CD01099588819981DC01ED91FC910190D1
:10072000F081E02D612F099581E0DF91CF911F913C
:100730000C947F020895E091980180919701E81749
:1007400030F4F0E0E756FE4F808190E008958FEF9F
:100750009FEF089590919801809197012FEF3FEFBF
:10076000981748F4E92FF0E0E756FE4F208130E07B
:100770009F5F90939801C90108958091970190918E
:100780009801891B990B0895CF92DF92EF92FF9207
:100790000F931F93CF93DF937C01CB018A012091AC
:1007A000E501222389F0EB016B01C40ED51ECC15A7
:1007B000DD0569F06991D701ED91FC910190F0811F
:1007C000E02DC7010995F3CF642F0E941902C801DB
:1007D000DF91CF911F910F91FF90EF90DF90CF901D
:1007E0000895CF93DF931F92CDB7DEB76983209131
:1007F000E5012223F9F020910802203258F021E08F
:1008000030E0FC013383228390E080E00F90DF91A1
:10081000CF9108958091E601E82FF0E0E951FE4F75
:10082000998190838F5F8093E6018093080281E035
:1008300090E0ECCF61E0CE0101960E941902F7CF63
:1008400090E080E008952F923F924F925F926F92D6
:100850007F928F929F92AF92BF92CF92DF92EF9250
:10086000FF920F931F93CF93DF93CDB7DEB76697B9
:100870000FB6F894DEBF0FBECDBF8091B20290914B
:10088000B30221E02093E50128E6209307021092AD
:10089000E60110920802DC01ED91FC910190F081DB
:1008A000E02D6BE3099580E00E947F020E94E50045
:1008B0004B015C018091DF01811165C081E0809373
:1008C000DF018093DE019FEF9093DD011092DC0148
:1008D0009DE09093DB018093BA018091BA01806D15
:1008E0008093BA018091B901813009F0F1C2109270
:1008F000B9010E94E5004B015C018091BA0180932F
:10090000BB008091E1019091E201A091E301B091DF
:10091000E401892B8A2B8B2BA1F00E94E50000912A
:10092000E1011091E2012091E3013091E4016819A5
:1009300079098A099B09061717072807390708F458
:1009400043C08091BC0083FDD8CF85EC8093BC0070
:100950000E94E5004B015C018091DF01813009F4C8
:10096000B9C28091DC018E3008F0D6C28091DC01E2
:10097000ABEBB1E0E9E9F1E090E0981751F12D918E
:1009800021939F5FFACF8091E1019091E201A091C4
:10099000E301B091E401892B8A2B8B2B09F48ACFD8
:1009A0000E94E5000091E1011091E2012091E30134
:1009B0003091E401681979098A099B09061717071C
:1009C0002807390708F076CF8091E0010E945E0287
:1009D00080E010929801809397018E010F5F1F4F66
:1009E0006E01BFE0CB0ED11C8091B2029091B30298
:1009F000DC01ED91FC910284F385E02D0995B82E80
:100A00008091B2029091B302DC01ED91FC910284DD
:100A1000F385E02D0995E12C8E299B29F80181931E
:100A200091938F01CE16DF06F9F6C090B802D090F0
:100A3000B902E090BA02F090BB0269817A81072E78
:100A4000000C880B990B0E94700DA70196010E9463
:100A5000C60C2091C8023091C9024091CA0250913F
:100A6000CB020E94E20B4B015C018092D802909273
:100A7000D902A092DA02B092DB026B817C81072E50
:100A8000000C880B990B0E94700DA70196010E9423
:100A9000C60C2091CC023091CD024091CE025091F3
:100AA000CF020E94E20B2B013C014092DC025092EB
:100AB000DD026092DE027092DF026D817E81072E80
:100AC000000C880B990B0E94700DA70196010E94E3
:100AD000C60C2091D0023091D1024091D2025091A7
:100AE000D3020E94E20B6B017C01C092E002D09223
:100AF000E102E092E202F092E3026F817885072E34
:100B0000000C880B990B0E94700D20E030EF41E43F
:100B100056E40E94E30B20E030E04AEA53E40E94EE
:100B2000C60C6093D4027093D5028093D602909342
:100B3000D7022091B4023091B5024091B602509193
:100B4000B7022F87388B498B5A8B69857A85072E98
:100B5000000C880B990B0E94700D2F8538894989EC
:100B60005A890E94C60C2091BC023091BD0240916E
:100B7000BE025091BF020E94E20B6093E4027093A8
:100B8000E5028093E6029093E7026B857C85072E51
:100B9000000C880B990B0E94700D2F8538894989AC
:100BA0005A890E94C60C2091C0023091C102409126
:100BB000C2025091C3020E94E20B6093E80270935C
:100BC000E9028093EA029093EB026D857E85072E01
:100BD000000C880B990B0E94700D2F85388949896C
:100BE0005A890E94C60C2091C4023091C5024091DE
:100BF000C6025091C7020E94E20B6093EC02709310
:100C0000ED028093EE029093EF02A7019601C701D7
:100C1000B6010E94540E6F87788B898B9A8BA50141
:100C20009401C501B4010E94540E2F853889498969
:100C30005A890E94E30B0E94C70E6B8B7C8B8D8BB5
:100C40009E8B22242394312C20E030E0A901C7019F
:100C5000B6010E94470E87FF02C0312C212C01E013
:100C600010E020E030E0A901C701B6010E94C10CEC
:100C700087FD02C010E000E0B101601B710B072E80
:100C8000000C880B990B0E94700D2B893C894D89B3
:100C90005E890E94540E9B01AC01C301B2010E9407
:100CA000620C21EE3EE245E652E40E94540E60934F
:100CB000F0027093F1028093F2029093F302A30189
:100CC0009201C301B2010E94540E2F8538894989CF
:100CD0005A890E94E30B0E94C70E9B01AC01C5011B
:100CE000B4010E94620C905821EE3EE245E652E4C7
:100CF0000E94540E6093F4027093F5028093F60202
:100D00009093F7028FB7F89480909301909094019C
:100D1000A0909501B09096018FBF809104039091AF
:100D20000503A0910603B0910703A5019401281BB8
:100D3000390B4A0B5B0BCA01B9010E946E0D2FE6FD
:100D400032E143E85AE30E94540E6B017C01809229
:100D5000040390920503A0920603B09207038090CB
:100D6000080390900903A0900A03B0900B03A5011B
:100D7000940160E070E080E89FE30E94E20B2B01A9
:100D80003C012091E4023091E5024091E60250914D
:100D9000E702C701B6010E94540E2091F80230917B
:100DA000F9024091FA025091FB020E94E30BA50167
:100DB00094010E94540E6F87788B898B9A8B2091B7
:100DC000F0023091F1024091F2025091F302C3011E
:100DD000B2010E94540E9B01AC016F85788989890C
:100DE0009A890E94E30B6093F8027093F902809352
:100DF000FA029093FB022091E8023091E9024091BF
:100E0000EA025091EB02C701B6010E94540E2091F4
:100E1000FC023091FD024091FE025091FF020E94BF
:100E2000E30BA50194010E94540E4B015C0120913B
:100E3000F4023091F5024091F6025091F702C3019D
:100E4000B2010E94540E9B01AC01C501B4010E9485
:100E5000E30B6093FC027093FD028093FE0290937B
:100E6000FF022091EC023091ED024091EE02509190
:100E7000EF02C701B6010E94540E20910003309189
:100E8000010340910203509103030E94E30B60931E
:100E9000000370930103809302039093030366960B
:100EA0000FB6F894DEBF0FBECDBFDF91CF911F917B
:100EB0000F91FF90EF90DF90CF90BF90AF909F90F9
:100EC0008F907F906F905F904F903F902F900895FC
:100ED00085EE3CCD8091E1019091E201A091E3018A
:100EE000B091E401892B8A2B8B2B09F435CD0E941C
:100EF000E5000091E1011091E2012091E3013091C0
:100F0000E401681979098A099B0906171707280758
:100F1000390708F021CD58CD8EE02ACDFC01019093
:100F20000020E9F73197AF01481B590BBC0189E05C
:100F300092E00C940C018F929F92AF92BF92CF924D
:100F4000DF92EF92FF920F931F93CF93DF93CDB772
:100F5000DEB7A1970FB6F894DEBF0FBECDBF6B0111
:100F60007C01F7FE41C06DE289E092E00E94AC0195
:100F70008C0122273327A9012C193D094E095F094D
:100F800019A2CE0181967C019AE0892E912CA12C88
:100F9000B12CCA01B901A50194010E94BA0B605D90
:100FA000F70162937F01211531054105510589F74C
:100FB00090E080E0309719F0CF010E948E07800FFB
:100FC000911FA1960FB6F894DEBF0FBECDBFDF9183
:100FD000CF911F910F91FF90EF90DF90CF90BF9036
:100FE000AF909F908F900895AC019B0119A28E0144
:100FF0000F5D1F4F8AE0C82ED12CE12CF12CCA01C5
:10100000B901A70196010E94BA0B605DF8016293D5
:101010008F01211531054105510589F790E080E0E8
:10102000309779F2CF010E948E07CBCF85ED809368
:10103000BC008091E1019091E201A091E301B091A7
:10104000E4010796A11DB11D23E0B695A7959795DC
:1010500087952A95D1F72091BC0024FD03C01092FA
:10106000DF0108954091E1015091E2016091E301B7
:101070007091E401452B462B472B69F30097A1059E
:10108000B10541F02AE22A95F1F700C00197A109C4
:10109000B109E1CF8091E0010C945E021F920F92A2
:1010A0000FB60F9211242F933F938F939F93AF937B
:1010B000BF938091930190919401A0919501B0917B
:1010C000960130918E0123E0230F2D3758F50196BC
:1010D000A11DB11D20938E018093930190939401E3
:1010E000A0939501B093960180918F01909190010A
:1010F000A0919101B09192010196A11DB11D809323
:101100008F0190939001A0939101B0939201BF91B0
:10111000AF919F918F913F912F910F900FBE0F90A4
:101120001F90189526E8230F0296A11DB11DD2CF5E
:101130001F920F920FB60F9211242F933F934F934C
:101140005F936F937F938F939F93AF93BF93EF932F
:10115000FF9389E092E00E948A01FF91EF91BF9195
:10116000AF919F918F917F916F915F914F913F913F
:101170002F910F900FBE0F901F9018951F920F92F6
:101180000FB60F9211242F938F939F93EF93FF939A
:10119000E0911902F0911A028081E0911F02F09112
:1011A000200282FD1BC09081809122028F5F8F738D
:1011B00020912302821741F0E0912202F0E0E75FE4
:1011C000FD4F958F80932202FF91EF919F918F9118
:1011D0002F910F900FBE0F901F9018958081F4CF24
:1011E0001F920F920FB60F9211242F933F934F939C
:1011F0005F936F937F938F939F93AF93BF93EF937F
:10120000FF938091B900887F803609F44AC0F0F5D9
:10121000883209F4A7C018F5803109F49BC0B8F4EE
:10122000882309F4F9C0883009F494C0FF91EF9144
:10123000BF91AF919F918F917F916F915F914F91EE
:101240003F912F910F900FBE0F901F9018958831EE
:1012500009F488C0803251F78093DD0114C08034D6
:1012600009F49DC040F48033B9F38833F9F68093D4
:10127000DD0185ECB0C0803509F485C0883509F4FE
:1012800096C0883499F60E941608D0CF883909F4A0
:101290008CC038F5883729F050F4883611F0803743
:1012A00029F683E08093DF011092890157C08838C6
:1012B00009F47BC0803919F0803809F0B7CF8091EC
:1012C0008901803208F071C0E091890181E08E0FC0
:1012D000809389018091BB00F0E0E759FE4F808345
:1012E0003DC0803B39F0E0F4803A09F479C0883A97
:1012F00009F09CCF84E08093DF0110926801109286
:101300006701E0918C01F0918D0109958091670151
:1013100081110FC081E0809367011092470109C0DD
:10132000803C09F4A6CF883C09F4A3CF883B09F0A0
:101330007DCFE091680181E08E0F80936801F0E03D
:10134000E95BFE4F80818093BB00909168018091A2
:10135000670129C08091BA018093BB0085EC80931E
:10136000BC0064CF9091DC018091DB01981758F5A7
:10137000E091DC0181E08E0F8093DC01F0E0E55428
:10138000FE4F8081E9CFE091DC0181E08E0F8093F8
:10139000DC018091BB00F0E0E554FE4F808390912A
:1013A000DC018091DB019817C8F285E8D8CFE09185
:1013B000DC0181E08E0F8093DC018091BB00F0E0C6
:1013C000E554FE4F80838091DE0181115CCF81E086
:1013D0008093B90184EA8093BC001092DF0126CF8C
:1013E00085EC8093BC001092DF01809189018032EE
:1013F00030F4E0918901F0E0E759FE4F10826091EE
:10140000890170E0E0918A01F0918B0189E691E019
:101410000995109289010ACF1092DD0134CFE9E0DD
:10142000F2E01382128248EE53E060E070E0448301
:1014300055836683778384E091E09183808385EC94
:1014400090E09587848784EC90E09787868780EC8E
:1014500090E0918B808B81EC90E0938B828B82EC7F
:1014600090E0958B848B86EC90E0978B868B118E29
:10147000128E138E148EA6EAB2E013961C921E9260
:10148000129714964D935D936D937C93179786E115
:1014900091E011969C938E93E2EBF2E0B183A083EE
:1014A00088E491EEAAE7BFE38093080390930903D1
:1014B000A0930A03B0930B03128613861486158635
:1014C00016861786108A118A128A138A148A158A38
:1014D000168A178A108E118E128E138E148E158E08
:1014E000168E178E10A211A20895789484B582608A
:1014F00084BD84B5816084BD85B5826085BD85B5B8
:10150000816085BD80916E00816080936E00109235
:1015100081008091810082608093810080918100B0
:101520008160809381008091800081608093800041
:101530008091B10084608093B1008091B00081609F
:101540008093B00080917A00846080937A008091CB
:101550007A00826080937A0080917A008160809323
:101560007A0080917A00806880937A001092C1009E
:10157000E0911902F0911A0282E08083E091150255
:10158000F09116021082E0911702F09118028FEC90
:10159000808310922102E0911D02F0911E0286E0EC
:1015A0008083E0911B02F0911C0280818061808326
:1015B000E0911B02F0911C02808188608083E091A1
:1015C0001B02F0911C02808180688083E0911B02E5
:1015D000F0911C0280818F7D80831092980110927F
:1015E00097011092E601109208020E9440028AE0E0
:1015F00091E090938D0180938C018BE091E090932A
:101600008B0180938A0160E089E10E946F0360E0B2
:101610008AE10E946F0380E090E0A3E8B2E4809347
:10162000B4029093B502A093B602B093B70268E0FB
:101630008BE10E946F0380E090E0A0E8B6E4809325
:10164000B8029093B902A093BA02B093BB0260E0D3
:101650008CE10E946F0361E08BE60E946F030E94A1
:1016600023048091F0029091F102A091F202B091D6
:10167000F3028093F8029093F902A093FA02B093D8
:10168000FB028091F4029091F502A091F602B091D4
:10169000F7028093FC029093FD02A093FE02B093A8
:1016A000FF022FB7F8948091930190919401A0913B
:1016B0009501B09196012FBF809304039093050389
:1016C000A0930603B0930703C0E0D0E00E94230478
:1016D0006091D8027091D9028091DA029091DB0278
:1016E0000E94380D2B016091DC027091DD02809127
:1016F000DE029091DF020E94380D4B016091E00202
:101700007091E1028091E2029091E3020E94380D13
:101710006B0184E291E00E948E0784E391E00E94D5
:101720008E07B201550C880B990B0E949B0788E32A
:1017300091E00E948E07B401990C880B990B0E94CE
:101740009B078DE391E00E948E07B601DD0C880BAC
:10175000990B0E949B0782E491E00E948E072097DC
:1017600009F4B4CF0E947601882309F4AFCF0E9418
:101770000000ACCFA1E21A2EAA1BBB1BFD010DC0BD
:10178000AA1FBB1FEE1FFF1FA217B307E407F50731
:1017900020F0A21BB30BE40BF50B661F771F881F0D
:1017A000991F1A9469F760957095809590959B01A3
:1017B000AC01BD01CF010895EE0FFF1F0590F4911C
:1017C000E02D09945058BB27AA270E94FA0B0C94CD
:1017D0000D0E0E94FF0D38F00E94060E20F039F425
:1017E0009F3F19F426F40C94D50D0EF4E095E7FB19
:1017F0000C94CF0DE92F0E941E0E58F3BA17620702
:1018000073078407950720F079F4A6F50C94400E31
:101810000EF4E0950B2EBA2FA02D0B01B90190010B
:101820000C01CA01A0011124FF27591B99F0593F4F
:1018300050F4503E68F11A16F040A22F232F342F97
:101840004427585FF3CF469537952795A795F040E5
:101850005395C9F77EF41F16BA0B620B730B840BFA
:10186000BAF09150A1F0FF0FBB1F661F771F881FB2
:10187000C2F70EC0BA0F621F731F841F48F487950A
:1018800077956795B795F7959E3F08F0B0CF9395FC
:10189000880F08F09927EE0F9795879508950E9475
:1018A000FF0D60F080E891E009F49EEF0E94060EC3
:1018B00028F040E851E071F45EEF0CC00C94D50DB7
:1018C0000C94400EE92FE0780E941E0E40F3092E82
:1018D000052AB1F3261737074807590738F00E2EA7
:1018E00007F8E02569F0E025E0640AC0EF6307F837
:1018F000009407FADB01B9019D01DC01CA01AD01C9
:10190000EF930E94DD0C0E940D0E0E94920C5F91DD
:10191000552339F02BED3FE049E450FD49EC0C94A0
:10192000E30B0895DF93DD27B92FBF7740E85FE32E
:101930001616170648075B0718F4D92F0E944C0E9D
:101940009F938F937F936F930E94070FE8E6F0E0D9
:101950000E94D80D0E940D0E2F913F914F915F91E3
:101960000E94670EDD2351F09058A2EA2AED3FE075
:1019700049EC5FE3D0785D270E94FA0BDF910C946D
:101980000D0E0E94AB0D08F481E008950E94DA0C60
:101990000C940D0E0E94060E58F00E94FF0D40F0B0
:1019A00029F45F3F29F00C94CF0D51110C94410E96
:1019B0000C94D50D0E941E0E68F39923B1F35523A4
:1019C00091F3951B550BBB27AA2762177307840752
:1019D00038F09F5F5F4F220F331F441FAA1FA9F3E8
:1019E00035D00E2E3AF0E0E832D091505040E695D6
:1019F000001CCAF72BD0FE2F29D0660F771F881F37
:101A0000BB1F261737074807AB07B0E809F0BB0B29
:101A1000802DBF01FF2793585F4F3AF09E3F51053D
:101A200078F00C94CF0D0C94410E5F3FE4F3983E98
:101A3000D4F3869577956795B795F7959F5FC9F726
:101A4000880F911D9695879597F90895E1E0660FA7
:101A5000771F881FBB1F621773078407BA0720F020
:101A6000621B730B840BBA0BEE1F88F7E095089589
:101A70000E943F0D6894B1110C94410E08950E948C
:101A8000260E88F09F5798F0B92F9927B751B0F0DC
:101A9000E1F0660F771F881F991F1AF0BA95C9F7F2
:101AA00014C0B13091F00E94400EB1E008950C9442
:101AB000400E672F782F8827B85F39F0B93FCCF3F5
:101AC000869577956795B395D9F73EF4909580956F
:101AD000709561957F4F8F4F9F4F0895E89409C08F
:101AE00097FB3EF490958095709561957F4F8F4F51
:101AF0009F4F9923A9F0F92F96E9BB279395F69567
:101B0000879577956795B795F111F8CFFAF4BB0FE4
:101B100011F460FF1BC06F5F7F4F8F4F9F4F16C048
:101B2000882311F096E911C0772321F09EE8872FD2
:101B3000762F05C0662371F096E8862F70E060E08E
:101B40002AF09A95660F771F881FDAF7880F969507
:101B5000879597F90895990F0008550FAA0BE0E8AB
:101B6000FEEF16161706E807F907C0F0121613065F
:101B7000E407F50798F0621B730B840B950B39F49F
:101B80000A2661F0232B242B252B21F408950A2605
:101B900009F4A140A6958FEF811D811D089597F945
:101BA0009F6780E870E060E008959FEF80EC089503
:101BB000DF93CF931F930F93FF92EF92DF927B01FE
:101BC0008C01689406C0DA2EEF010E94670EFE01B8
:101BD000E894A5912591359145915591A6F3EF0192
:101BE0000E94FA0BFE019701A801DA9469F7DF90D1
:101BF000EF90FF900F911F91CF91DF9108950024F6
:101C00000A941616170618060906089500240A9461
:101C100012161306140605060895092E0394000CE7
:101C200011F4882352F0BB0F40F4BF2B11F460FF76
:101C300004C06F5F7F4F8F4F9F4F089557FD90589F
:101C4000440F551F59F05F3F71F04795880F97FB80
:101C5000991F61F09F3F79F087950895121613063A
:101C60001406551FF2CF4695F1DF08C01616170669
:101C70001806991FF1CF869571056105089408959E
:101C8000E894BB2766277727CB0197F908950E9430
:101C9000AB0D08F48FEF08959B01AC0160E070E09C
:101CA00080E89FE30C94C60C0E94670E0C940D0E06
:101CB0000E94FF0D38F00E94060E20F0952311F0CF
:101CC0000C94CF0D0C94D50D11240C94410E0E9450
:101CD0001E0E70F3959FC1F3950F50E0551F629F44
:101CE000F001729FBB27F00DB11D639FAA27F00D75
:101CF000B11DAA1F649F6627B00DA11D661F829F9C
:101D00002227B00DA11D621F739FB00DA11D621F80
:101D1000839FA00D611D221F749F3327A00D611D9D
:101D2000231F849F600D211D822F762F6A2F11247F
:101D30009F5750409AF0F1F088234AF0EE0FFF1FB2
:101D4000BB1F661F771F881F91505040A9F79E3F09
:101D5000510580F00C94CF0D0C94410E5F3FE4F3DD
:101D6000983ED4F3869577956795B795F795E7955F
:101D70009F5FC1F7FE2B880F911D9695879597F968
:101D8000089519F416F40C94D50D0C940B0F0E94C1
:101D9000260EB8F39923C9F3B6F39F57550B87FF67
:101DA0000E94190F0024A0E640EA90018058569541
:101DB000979528F4805C660F771F881F20F0261700
:101DC0003707480730F4621B730B840B2029312935
:101DD0004A2BA69517940794202531254A2758F7B2
:101DE000660F771F881F20F026173707480730F443
:101DF000620B730B840B200D311D411DA09581F7E3
:101E0000B901842F9158880F9695879508959B0165
:101E1000AC010C94540E9F3F31F0915020F4879503
:101E200077956795B795880F911D9695879597F942
:101E3000089591505040660F771F881FD2F708957C
:041E4000F894FFCF44
:101E440000000000AC010C013901F9016A014801EC
:101E54005C0100000000F103C40320049A03BD03E5
:101E6400AA039B03416363656C65726F6D6574655A
:101E7400723A2000583A200020593A2000205A3A59
:061E840020000D0A000021
:00000001FF
